S01B000053656E696F7244657369676E50726F6A6563742E7372656368
S113000046C000006BC0000069C0000066C3000069
S113001065C0000063C0000061C000005FC0000054
S11300205DC000005BC0000059C0000057C0000064
S113003055C0000053C0000051C00000A5C200001C
S113004013C200004BC0000049C0000047C00000BC
S1130050AAC3000043C0000041C000003FC000002C
S11300603DC000003BC0000039C0000037C00000A4
S113007035C0000033C0000031C000002FC00000B4
S11300802DC000002BC0000029C000000C04112466
S11300901FBECFEFD0E4DEBFCDBF14E0A0E0B1E0DF
S11300A0E8ECFEE000E00BBF02C007900D92A6331F
S11300B0B107D9F727E0A6E3B4E001C01D92A93740
S11300C0B207E1F710E0C7E4D0E003C02197FE01D6
S11300D0F0D6C634D107D1F74FD0F4C691CFCF9321
S11300E0DF93EC01ADD381E089838A831C821D8276
S11300F0DF91CF910895CF93DF9387E081B988EEA4
S11301009DEF27E022B935E33A95F1F7000012B8E4
S1130110E7E6F1E03197F1F700C00000019791F7AD
S113012080E197E227E022B9E7ECF0E03197F1F7BC
S113013000C0000012B8E7ECF0E03197F1F700C01E
S11301400000019781F787E082B9C5EBD3E069919C
S113015088E797E013D4F3E0C33CDF07C1F7C3ECAF
S1130160D3E0699188E797E009D433E0C63CD3072C
S1130170C1F7DF91CF9108952FEF89E698E12150DF
S113018080409040E1F700C00000209A289AEFEFE9
S1130190F9E628E1E150F0402040E1F700C000001A
S11301A028988FEF99E6E8E181509040E040E1F72C
S11301B000C00000289AC6ECD3E0699188E797E074
S11301C0DDD3F3E0CE3CDF07C1F783ECE82E83E018
S11301D0F82E06EC13E0E701699188E797E0CED3A7
S11301E023E0C63CD207C1F760E081E494E0EAD39F
S11301F082DF88E797E0ADD3CEECD3E0699188E75E
S113020097E0BCD383E0C93ED807C1F7C3ECD3E081
S1130210699188E797E0B2D30C171D07C9F7C9EEB7
S1130220D3E0699188E797E0A9D394E0C130D90776
S1130230C1F7C3ECD3E0699188E797E09FD30C172B
S11302401D07C9F7579A1092B60016BC8EE887BDF1
S113025082E084BD91E095BD95B395BB80936E001B
S113026087E797E065D32098809169008063809345
S11302706900EA9A61EA73E081E494E0BCD4C1E0E5
S1130280D4E0699188E797E079D3E4E0C031DE07F0
S1130290C1F7F70161917F0188E797E06FD30E15ED
S11302A01F05B9F7FFEF29E688E1F15020408040AF
S11302B0E1F700C000008091060190910701181633
S11302C01906CCF3F89484E190E0909307018093AD
S11302D0060181E08093050178949FEFE9E6F8E157
S11302E09150E040F040E1F700C000008091060129
S11302F09091070118161906CCF3F89484E190E064
S1130300909307018093060181E08093050178941E
S11303102FEF89E698E1215080409040E1F700C03A
S11303200000809106019091070118161906CCF37C
S1130330F89484E190E0909307018093060181E0B2
S1130340809305017894EFEFF9E628E1E150F0405D
S11303502040E1F700C00000809106019091070160
S113036018161906CCF3F89484E190E090930701F1
S11303708093060181E08093050178948FEF99E6DC
S1130380E8E181509040E040E1F700C00000809136
S113039006019091070118161906CCF3F89484E12C
S11303A090E0909307018093060181E0809305011A
S11303B07894FFEF29E688E1F15020408040E1F78E
S11303C000C00000809106019091070118161906DB
S11303D0CCF3F89484E190E09093070180930601B4
S11303E081E0809305017894C4E1D0E011E080912C
S11303F036048823E1F38091390487708330C9F08F
S11304008091390487708430A1F080910601909125
S1130410070118161906CCF3F894D0930701C0937A
S1130420060110920501789460E086E797E01BD2FC
S113043013C0809106019091070118161906CCF398
S1130440F894D0930701C0930601109305017894A2
S113045061E086E797E007D28091000181278093CD
S1130460000110923604C3CF1F920F920FB60F9261
S113047011242F933F934F938F939F938091060161
S113048090910701181619068CF5809105018823AF
S1130490B9F180910101909102018431910508F430
S11304A059C09C012C5231402C33310508F452C000
S11304B02C5231402C33310508F44CC02C523140BD
S11304C02B32314008F446C05F98803D974008F4D1
S11304D044C0109202011092010180910601909192
S11304E00701019790930701809306019F918F91D3
S11304F04F913F912F910F900FBE0F901F90189521
S113050080910301909104018431910580F19C0153
S11305102C5231402832310550F12C5231402832CE
S1130520310528F12C5231402B32314000F15F98D3
S1130530803D27E09207F0F010920401109203012D
S11305408091060190910701019790930701809390
S11305500601CCCF80FD16C05F9880910101909177
S1130560020101969093020180930101BFCF80FDA7
S113057007C05F9801969093040180930301B6CF5E
S11305805F9AF8CF5F9AE9CF1F920F920FB60F923E
S113059011240BB60F922F933F934F935F936F9356
S11305A07F938F939F93AF93BF93EF93FF9381E4D4
S11305B094E0BCD281E494E09DD240913D048091CA
S11305C03E04442309F477C08F5F80933E0488235C
S11305D009F46CC020913B0490E030E0220F331FFB
S11305E0220F331F220F331F215031098217930723
S11305F009F45CC06FEF86E797E088D180913904F5
S11306008770853008F063C080913904877061E099
S1130610833008F460C0619586E797E06AD18091E1
S113062039048770853008F050C080913904877090
S113063061E0833008F04DC0619586E797E059D1B9
S113064080913904877061E070E001C0660F8A957B
S1130650EAF7609586E797E04CD16FEF86E797E07D
S113066055D18091370481112AC0809138048F5F5D
S1130670809338048091380482FF05C08091390446
S11306808F5F80933904FF91EF91BF91AF919F9158
S11306908F917F916F915F914F913F912F910F9027
S11306A00BBE0F900FBE0F901F90189581E084270A
S11306B080933D049FCF815080933E0488CF8091E6
S11306C03704815080933704DECF6FEFB6CF60E0FC
S11306D0A3CF60E0B1CF60E09ECF1F920F920FB620
S11306E00F9211240BB60F92EF92FF920F931F9368
S11306F02F933F934F935F936F937F938F939F9326
S1130700AF93BF93CF93DF93EF93FF93199B32C0C3
S113071081E080933604C0E1D4E0699188E797E0F2
S11307202DD184E0C132D807C1F703EC13E086EC85
S1130730E82E83E0F82EE801699188E797E01ED15E
S1130740E3E0C63CDE07C1F7C1E2D4E0699188E783
S113075097E014D1F4E0C633DF07C1F7F8016191E3
S11307608F0188E797E00AD1E016F106B9F785E131
S113077080933704FF91EF91DF91CF91BF91AF91B7
S11307809F918F917F916F915F914F913F912F91A5
S11307901F910F91FF90EF900F900BBE0F900FBE23
S11307A00F901F9018951F920F920FB60F9211245D
S11307B00BB60F922F933F934F935F936F937F9357
S11307C08F939F93AF93BF93CF93DF93EF93FF9355
S11307D06091C60088E797E0D1D0C3ECD3E069917B
S11307E088E797E0CBD083E0C63CD807C1F7FF91F8
S11307F0EF91DF91CF91BF91AF919F918F917F91B5
S11308006F915F914F913F912F910F900BBE0F907D
S11308100FBE0F901F90189588E797E099D087E74F
S113082097E076D086E797E00BD081E494E0ADD0F2
S113083080E494E003D08AE394E051CC01C00895AD
S1130840ECECF0E011821082549A80EC8093CA00A0
S113085088E18093C90083E090E09183808387B12D
S11308608D6F87B908958FED88B9662309F12FEF4D
S113087033EC89E0215030408040E1F700C00000B3
S11308808FEF88B99FEF23EC39E09150204030403E
S1130890E1F700C000009FE798B99FEF2BE43DE12A
S11308A0915020403040E1F700C0000088B908951D
S11308B08FEF93EC29E0815090402040E1F700C095
S11308C000008FEF88B93FEF93EC29E0315090405E
S11308D02040E1F700C000009FEB98B93FEF9BE494
S11308E02DE1315090402040E1F700C0000088B96C
S11308F008958091C80085FFFCCF6093CE0080915D
S1130900C80087FFFCCF8091CE00089568B9089590
S1130910E1E8F0E08081826080831092850010928B
S11309208400EFE6F0E0808181608083789408950C
S1130930E1E8F0E08081826080831092850010926B
S11309408400EFE6F0E080818160808378940895EC
S11309500895509A8AB18C7F8AB91092C50083E3B6
S11309608093C400E1ECF0E0808188608083808122
S11309708061808386E08093C20008958091C000E6
S113098085FFFCCF6093C6000895CF93DF93EC01FD
S113099057DF84E089838FE090E09B838A831C8205
S11309A0FE01E556FF4F1082DE01A456BF4F89E9D0
S11309B092E0E8E0F1E001900D920197E1F7DF9118
S11309C0CF9108950F931F93CF93DF93EC016FEFB3
S11309D09DDF6FEFCE019ADF6EEFCE0197DF898145
S11309E0882359F011E06BE0CE0183DF67E0CE018C
S11309F080DF1F5F89818117B0F76FEFCE0186DF3B
S1130A006FEFCE0183DF6EEFCE0180DF8981882313
S1130A1059F011E069E0CE016CDF60E0CE0169DFDE
S1130A201F5F89818117B0F76FEFCE016FDF6FEF22
S1130A30CE016CDF6EEFCE0169DF8981882359F026
S1130A4011E06CE0CE0155DF61E0CE0152DF1F5FA3
S1130A5089818117B0F76FEFCE0158DF6FEFCE01B8
S1130A6055DF6EEFCE0152DF8981882359F011E002
S1130A706FE0CE013EDF60E0CE013BDF1F5F898186
S1130A808117B0F76FEFCE0141DF6FEFCE013EDF8C
S1130A906EEFCE013BDF8981882359F011E06AE0D3
S1130AA0CE0127DF6FE0CE0124DF1F5F898181172C
S1130AB0B0F76FEFCE012ADF01E06EEFCE0126DF43
S1130AC08981882359F011E0602FCE0112DF60E0A4
S1130AD0CE010FDF1F5F89818117B0F76FEFCE0161
S1130AE015DF0F5F093049F71C82DF91CF911F9109
S1130AF00F910895FC0184819181482F50E0228157
S1130B003381B901660F771F660F771F260F371FD2
S1130B1068E0969F200D311D11244217530718F4E5
S1130B208F5F8483089580E084830895A0E0B0E01B
S1130B30EBE9F5E091C1EC0101E010E07C018BE907
S1130B40E80EF11CD02E6EEFCE01E0DE8981882301
S1130B5009F43DC0C12C1CC0241B350B8A819B8128
S1130B60AC01440F551F440F551F840F951F821766
S1130B70930730F1F70180818823B1F1FE01E20F80
S1130B80F31F6581CE01B5DEC3948981C816F8F4DC
S1130B906D2DCE01AEDE8C819801280F311DE8E069
S1130BA0CE9E200D311D1124898190E0AC01440FAB
S1130BB0551F440F551F440F551F2417350760F662
S1130BC060E0CE0196DEC3948981C81608F36FEF06
S1130BD0CE019CDE0F5F1F4F0930110509F0B2CF23
S1130BE0CDB7DEB7E8E054C12C0F3D1FF901E05B3F
S1130BF0FF4F6081C7CFA0E0B0E0E0E0F6E02CC199
S1130C00DB012C916C01222309F40CC1FBE9CF0E0A
S1130C10D11CD6010C91FB0114E0D3E0C2E041E009
S1130C2050E07BC030E020523109D901AA0FBB1F2C
S1130C30AA0FBB1FAA0FBB1FA21BB30BA80FB91F80
S1130C40A256BF4F2C91D70115962C93208130E0EA
S1130C5020523109D901AA0FBB1FAA0FBB1FAA0F2B
S1130C60BB1FA21BB30BA80FB91FA156BF4F2C91DA
S1130C70DC01A40FB11D15962C93208130E0205285
S1130C803109D901AA0FBB1FAA0FBB1FAA0FBB1F93
S1130C90A21BB30BA80FB91FA056BF4F2C91DC01A8
S1130CA0AC0FB11D15962C93208130E020523109F0
S1130CB0D901AA0FBB1FAA0FBB1FAA0FBB1FA21BE0
S1130CC0B30BA80FB91FAF55BF4F2C91DC01AD0F6B
S1130CD0B11D15962C93208130E020523109F90181
S1130CE0EE0FFF1FEE0FFF1FEE0FFF1FE21BF30BB4
S1130CF0E80FF91FEE55FF4F2081FC01E10FF11DB4
S1130D0025835F5FFB01E50FF11D20814B5FCB5F06
S1130D10DB5F1B5F222309F48AC03FEF340F7C01A1
S1130D20E30EF11C002309F47DCFB0E5EB0EF11CBA
S1130D3030E020523109D901AA0FBB1FAA0FBB1FF3
S1130D40AA0FBB1FA21BB30BA80FB91FA256BF4FFC
S1130D502C91D7012C937C01E40EF11CB0E5EB0E31
S1130D60F11CA081B0E090979D01220F331F220F48
S1130D70331F220F331F2A1B3B0B280F391FD901A6
S1130D80A156BF4F2C91D7012C937C01EC0EF11C82
S1130D90B0E5EB0EF11CA081B0E090979D01220F0D
S1130DA0331F220F331F220F331F2A1B3B0B280F25
S1130DB0391FD901A056BF4F2C91D7012C937C0128
S1130DC0ED0EF11CB0E5EB0EF11CA081B0E09097A4
S1130DD09D01220F331F220F331F220F331F2A1BA3
S1130DE03B0B280F391FD901AF55BF4F2C91D701A9
S1130DF02C93DC01A10FB11DA05BBF4F208130E01B
S1130E0020523109F901EE0FFF1FEE0FFF1FEE0F05
S1130E10FF1FE21BF30BE80FF91FEE55FF4F208174
S1130E202C936FCFBBE9CB0ED11CF601008121E0DE
S1130E300227F6010083DC0114961C92CDB7DEB7BD
S1130E40E8E026C02F923F924F925F926F927F927A
S1130E508F929F92AF92BF92CF92DF92EF92FF92C6
S1130E600F931F93CF93DF93CDB7DEB7CA1BDB0B72
S1130E700FB6F894DEBF0FBECDBF09942A88398817
S1130E8048885F846E847D848C849B84AA84B9841E
S1130E90C884DF80EE80FD800C811B81AA81B9812A
S1130EA0CE0FD11D0FB6F894DEBF0FBECDBFED013E
S1130EB00895EE0FFF1F0024001C0BBE0790F6914F
S10B0EC0E02D0994F894FFCF22
S1130EC80100000000010000030800000000000108
S1130ED8085F00000000030803000300000508146D
S1130EE83E143E140408246A2B12000508631308F0
S1130EF864630508364956205001080300000000C1
S1130F0803081C22410000030841221C00000508B4
S1130F1828180E1828050808083E08080208B070A2
S1130F2800000004080808080800020860600000BF
S1130F38000408601806010004083E41413E00030D
S1130F4808427F4000000408625149460004082210
S1130F584149360004081814127F0004082745453F
S1130F68390004083E4949300004086111090700A2
S1130F780408364949360004080649493E0002086F
S1130F882200000000020880500000000308102816
S1130F984400000308141414000003084428100033
S1130FA8000408025909060005083E49555D0E0467
S1130FB8087E11117E0004087F4949360004083E62
S1130FC84141220004087F41413E0004087F494909
S1130FD8410004087F0909010004083E41497A00D8
S1130FE804087F08087F000308417F4100000408C3
S1130FF83040413F0004087F0814630004087F4020
S113100840400005087F020C027F05087F04081091
S11310187F04083E41413E0004087F090906000494
S1131028083E4141BE0004087F09097600040846C9
S113103849493200050801017F010104083F404085
S11310483F0005080F3040300F05083F4038403F47
S113105805086314081463050807087008070408DA
S1131068615149470002087F410000000408010655
S11310781860000208417F00000003080201020012
S11310880004084040404000020801020000000437
S113109808205454780004087F444438000408386D
S11310A84444280004083844447F0004083854544D
S11310B818000308047E050000040898A4A4780016
S11310C804087F040478000308447D4000000408F1
S11310D84080847D0004087F102844000308417F71
S11310E840000005087C047C047804087C04047827
S11310F800040838444438000408FC242418000474
S113110808182424FC0004087C0804040004084883
S1131118545424000308043F44000004083C40409D
S11311287C0005081C2040201C05083C403C403C31
S11311380508442810284404089CA0A07C0003083F
S113114864544C00000308083641000001087F007D
S113115800000003084136080000040808040804D5
S1131168004D797374696320576972657300546517
S1131178616D203600466C616D657320506C617931
S11311886564000D0A0057656C636F6D6500416204
S11311986F757420746F20494E49542077656170C7
S11311A86F6E4D617472697800776561706F6E4D0A
S11311B861747269782077617320496E6974656413
S11311C8004E657720537472696E67205365740006
S11311D8495232204C6174636865642048696768C1
S11311E80049742077617320416363656C65726F8D
S10911F86D6574657200D0
S9030000FC
