S01B000053656E696F7244657369676E50726F6A6563742E7372656368
S113000046C000006BC0000069C00000EEC30000E1
S113001065C0000063C0000061C000005FC0000054
S11300205DC000005BC0000059C0000057C0000064
S113003055C0000053C0000051C0000011C30000AF
S11300407FC200004BC0000049C0000047C0000050
S1130050E6C3000043C0000041C000003FC00000F0
S11300603DC000003BC0000039C0000037C00000A4
S113007035C0000033C0000031C000002FC00000B4
S11300802DC000002BC0000029C000009F041124D3
S11300901FBECFEFD0E4DEBFCDBF14E0A0E0B1E0DF
S11300A0E2EDF0E100E00BBF02C007900D92A63C28
S11300B0B107D9F728E0A6ECB4E001C01D92AF3334
S11300C0B207E1F710E0C7E4D0E003C02197FE01D6
S11300D0F5D7C634D107D1F735D0F9C791CFCF932F
S11300E0DF93EC013BD483E0898381E08A831B8224
S11300F08FE08C831D821E82DF91CF9108958091C1
S1130100C00085FFFCCF8FEF8093C6008091C000B4
S113011085FFFCCF1092C6008091C00085FFFCCF04
S113012081E08093C6008091C00085FFFCCF82E807
S11301308093C6008091C00085FFFCCF83E8809344
S1130140C60008952FEF39E688E121503040804001
S1130150E1F700C00000209A289A9FEF29E638E1D1
S1130160915020403040E1F700C0000028988FEF04
S113017099E628E1815090402040E1F700C000005A
S1130180289A60E085ED94E0A5D480EE81B982B12F
S11301908F7182B98EE398E068D4579A1092B600B2
S11301A016BC8EE887BD82E084BD91E095BD95B311
S11301B095BB80936E008DE398E046D4209880919F
S11301C06900806380936900EA9A99DF68EA74E0C1
S11301D085ED94E015D6CAE0D0E08091C904882367
S11301E009F496C08091D4048850893008F031C154
S11301F08091CA048A3508F05BC18091CA04865F85
S11302008093CA048091050190910601181619067D
S1130210CCF3F894D0930601C093050181E0809358
S11302200401789461E08CE398E0ABD380EE81B96B
S1130230159A2091CA048091CB04853909F431C1FF
S11302408091CB04823909F43CC18091CB048E386F
S113025009F43AC18091CB048F3809F43BC18091F1
S1130260CB04833909F43CC18091CB048D3809F463
S11302703DC18091CB04883709F43EC18091CB0401
S1130280813709F43FC18091CB048B3709F440C115
S11302908091CB048C3709F441C18091CB048A3717
S11302A009F442C1ECE7F4E080E7838B88E6828BB3
S11302B09DEC299F812D11248695869586953AE09B
S11302C0839F20191124205D218B899F912D112456
S11302D0969596959695382F2AE0929F3019112479
S11302E0932F31113CC08A30D0F590E2908B9DEC75
S11302F0899F812D112486958695869509F4D6C00B
S1130300805D8787BF0185ED94E07AD51092C9049A
S11303108091CC04811125C08091C00085FFFCCF61
S11303208FEF8093C6008091C00085FFFCCF1092B0
S1130330C6008091C00085FFFCCF81E08093C60099
S11303408091C00085FFFCCF82E88093C600809135
S1130350C00085FFFCCF83E88093C6003ECF905D4C
S1130360C5CF1092CA042091CA048091CB04853968
S113037009F4ADC08091CB04823909F4AEC08091F8
S1130380CB048E3809F4AFC08091CB048F3809F4C4
S1130390B0C08091CB04833909F4B1C08091CB04FF
S11303A08D3809F4B2C08091CB04883709F4B3C006
S11303B08091CB04813709F4B4C08091CB048B378E
S11303C009F4B5C08091CB048C3709F4B3C0809193
S11303D0CB048A3709F4B1C0ECE7F4E080E7838BFF
S11303E088E6828B9DEC299F812D11248695869524
S11303F086953AE0839F20191124205D218B899FE3
S1130400912D1124969596959695382F2AE0929FD2
S113041030191124932F311147C08A3008F044C099
S113042090E2908B9DEC899F812D11248695869571
S1130430869509F444C0805D8787BF0185ED94E00B
S1130440DFD41092CC0480EE81B982B18F7182B96D
S113045063CF8091CA048A3078F18091CA048A50AB
S11304608093CA048091050190910601181619061B
S1130470CCF3F894D0930601C093050110920401C3
S1130480789460E08CE398E07CD280EE81B982B10C
S1130490806C82B92091CA048091CB04853909F01B
S11304A0CFCEE0EAF3E000CF905DBBCF80E229CF6E
S11304B084E68093CA04A6CE1092CA04D3CF80E205
S11304C0BBCFE6EBF3E0F0CEECECF3E0EDCEE0EA0C
S11304D0F3E084CFE2EEF3E0E7CEE6EBF3E07ECFA9
S11304E0E8EFF3E0E1CEECECF3E078CFEEE0F4E01B
S11304F0DBCEE2EEF3E072CFE4E2F4E0D5CEE8EF57
S1130500F3E06CCFEAE3F4E0CFCEEEE0F4E066CFC4
S1130510E0E5F4E0C9CEE4E2F4E060CFE6E6F4E03E
S1130520C3CEEAE3F4E05ACFE2E9F4E0BDCEE0E57D
S1130530F4E054CFE6E6F4E051CFE2E9F4E04ECF44
S11305401F920F920FB60F9211242F933F934F9344
S11305508F939F93809105019091060118161906B7
S11305608CF5809104018823B9F180910001909168
S113057001018431910508F459C09C012C52314089
S11305802C33310508F452C02C5231402C33310540
S113059008F44CC02C5231402B32314008F446C090
S11305A05F98803D974008F444C010920101109276
S11305B00001809105019091060101979093060135
S11305C0809305019F918F914F913F912F910F90AF
S11305D00FBE0F901F901895809102019091030116
S11305E08431910580F19C012C523140283231052F
S11305F050F12C5231402832310528F12C5231402F
S11306002B32314000F15F98803D27E09207F0F0F3
S1130610109203011092020180910501909106014C
S113062001979093060180930501CCCF80FD16C0FD
S11306305F988091000190910101019690930101CE
S113064080930001BFCF80FD07C05F98019690930F
S1130650030180930201B6CF5F9AF8CF5F9AE9CF86
S11306601F920F920FB60F9211240BB60F922F9375
S11306703F934F935F936F937F938F939F93AF9326
S1130680BF93CF93EF93FF9385ED94E054D385ED1F
S113069094E0B8D2C091CD04CC23C9F08091CD04AC
S11306A081508093CD04FF91EF91CF91BF91AF9191
S11306B09F918F917F916F915F914F913F912F9176
S11306C00F900BBE0F900FBE0F901F9018956BEFFD
S11306D08EEC94E0A3D160E08EEC94E092D1809112
S11306E0D20498EF980F983008F45AC060E08EEC6A
S11306F094E087D160E08EEC94E083D18091D204C1
S113070090EF980F983008F061C0877061E070E056
S113071001C0660F8A95EAF78EEC94E072D180915D
S1130720D20498EF980F923008F445C092EF980FD6
S1130730923008F440C06C2F8EEC94E062D180912A
S1130740D204883008F447C060E08EEC94E059D1BC
S113075060E08EEC94E055D16FEF8EEC94E05ED1C6
S11307604091D1048091D204442361F18F5F80933E
S1130770D204882381F02091CF0490E030E0220F4E
S1130780331F220F331F220F331F215031098217C9
S1130790930709F088CF81E084278093D10483CF25
S11307A0877061E070E001C0660F8A95EAF78EEC0D
S11307B094E027D19FCF8770C1E001C0CC0F8A9508
S11307C0EAF7B9CF81508093D204D3CF60E08EECA6
S11307D094E017D1A4CF61E070E001C0660F8A9560
S11307E0EAF78EEC94E00DD1B3CF1F920F920FB6BF
S11307F00F9211248F938091CD0481110AC081E05E
S11308008093C9048091D2048093D4048FE38093AD
S1130810CD048F910F900FBE0F901F9018951F92CB
S11308200F920FB60F9211240BB60F922F933F9392
S11308304F935F936F937F938F939F93AF93BF93E4
S1130840EF93FF938091C6008093C8048091C804FD
S11308508539C1F18091C8048239A1F18091C8041D
S11308608E3881F18091C8048F3861F18091C80479
S1130870833941F18091C8048D3821F18091C804F5
S1130880883701F18091C8048B37E1F08091C80466
S11308908137C1F08091C8048C37A1F08091C804DD
S11308A08A3781F08091C6049091C704019781F141
S11308B08091C6049091C70401979093C7048093D4
S11308C0C60413C09091CB048091C804981739F0E2
S11308D08091C8048093CB0481E08093CC0480E0B1
S11308E098E09093C7048093C604FF91EF91BF9161
S11308F0AF919F918F917F916F915F914F913F91B4
S11309002F910F900BBE0F900FBE0F901F90189554
S11309108091CB04882351F060EB74E085ED94E082
S11309206FD280EE81B982B18F7182B980E098E094
S11309309093C7048093C6041092CB04D6CF8EE361
S113094098E092D08DE398E06FD08CE398E006D0E5
S113095085ED94E0A2D08EEC94E0C1CBECECF0E019
S113096011821082549A80EC8093CA0088E18093AB
S1130970C90083E090E09183808387B18D6F87B94C
S1130980089581B1876081B91098662319F12FEF1A
S113099083EC99E0215080409040E1F700C00000D2
S11309A082B1876082B92FEF83EC99E021508040B7
S11309B09040E1F700C0000011982FEF8BE49DE117
S11309C0215080409040E1F700C0000082B1876070
S11309D082B908952FEF83EC99E021508040904034
S11309E0E1F700C0000082B1876082B92FEF83EC89
S11309F099E0215080409040E1F700C00000129837
S1130A00DCCF8091C80085FFFCCF6093CE0080913D
S1130A10C80087FFFCCF8091CE0008958091C80064
S1130A2085FFFCCF68B90895E1E8F0E08081826039
S1130A3080831092850010928400EFE6F0E08081BC
S1130A408160808378940895E1E8F0E08081826099
S1130A5080831092850010928400EFE6F0E080819C
S1130A6081608083789408950895509A8AB18C7F28
S1130A708AB91092C50083E38093C400E1ECF0E0EE
S1130A8080818860808380818061808380818068A8
S1130A90808386E08093C2000895CF93DF93EC01B6
S1130AA05DDF84E0898384E190E09B838A831C82F8
S1130AB0FE01E353FF4F1082DE01A253BF4F89E9C9
S1130AC092E0E7E0F1E001900D920197E1F7DF9108
S1130AD0CF9108950F931F93CF93DF93EC016FEFA2
S1130AE09DDF6FEFCE019ADF6EEFCE0197DF898134
S1130AF0882359F011E06BE0CE0183DF67E0CE017B
S1130B0080DF1F5F89818117B0F76FEFCE0186DF29
S1130B106FEFCE0183DF6EEFCE0180DF8981882302
S1130B2059F011E069E0CE016CDF60E0CE0169DFCD
S1130B301F5F89818117B0F76FEFCE016FDF6FEF11
S1130B40CE016CDF6EEFCE0169DF8981882359F015
S1130B5011E06CE0CE0155DF61E0CE0152DF1F5F92
S1130B6089818117B0F76FEFCE0158DF6FEFCE01A7
S1130B7055DF6EEFCE0152DF8981882359F011E0F1
S1130B806FE0CE013EDF60E0CE013BDF1F5F898175
S1130B908117B0F76FEFCE0141DF6FEFCE013EDF7B
S1130BA06EEFCE013BDF8981882359F011E06AE0C2
S1130BB0CE0127DF6FE0CE0124DF1F5F898181171B
S1130BC0B0F76FEFCE012ADF01E06EEFCE0126DF32
S1130BD08981882359F011E0602FCE0112DF60E093
S1130BE0CE010FDF1F5F89818117B0F76FEFCE0150
S1130BF015DF0F5F093049F71C82DF91CF911F91F8
S1130C000F9108951F93CF93DF93EC012C813981C9
S1130C10422F50E08A819B81BC01660F771F660FCB
S1130C20771F860F971F68E0369F800D911D112452
S1130C304817590740F42F5F2C83222329F0DF91B2
S1130C40CF911F9108951C826FEFCE01E7DE6EEF06
S1130C50CE01E4DE8981882359F011E06BE0CE01F6
S1130C60D0DE67E0CE01CDDE1F5F89818117B0F74A
S1130C706FEFCE01D3DE6FEFCE01D0DE6EEFCE018B
S1130C80CDDE8981882359F011E069E0CE01B9DE17
S1130C9060E0CE01B6DE1F5F89818117B0F76FEF88
S1130CA0CE01BCDE6FEFCE01B9DE6EEFCE01B6DE53
S1130CB08981882359F011E06CE0CE01A2DE61E065
S1130CC0CE019FDE1F5F89818117B0F76FEFCE01E0
S1130CD0A5DE6FEFCE01A2DE6EEFCE019FDE89812D
S1130CE0882359F011E06FE0CE018BDE60E0CE0185
S1130CF088DE1F5F89818117B0F76FEFCE018EDE2A
S1130D006FEFCE018BDE6EEFCE0188DE8981882302
S1130D1059F011E06AE0CE0174DE6FE0CE0171DEBD
S1130D201F5F89818117B0F76FEFCE0177DEDF9106
S1130D30CF911F910895A0E0B0E0E0EAF6E091C100
S1130D40EC0101E010E07C018DECE80EF11CD02EEA
S1130D506EEFCE0163DE8981882309F43DC0C12C86
S1130D601CC0241B350B8A819B81AC01440F551F89
S1130D70440F551F840F951F8217930730F1F70115
S1130D8080818823B1F1FE01E20FF31F6581CE015A
S1130D9038DEC3948981C816F8F46D2DCE0131DE96
S1130DA08C819801280F311DE8E0CE9E200D311D65
S1130DB01124898190E0AC01440F551F440F551F45
S1130DC0440F551F2417350760F660E0CE0119DE85
S1130DD0C3948981C81608F36FEFCE011FDE0F5F3D
S1130DE01F4F0930110509F0B2CFCDB7DEB7E8E0E7
S1130DF054C12C0F3D1FF901E759FF4F6081C7CF44
S1130E00A0E0B0E0E5E0F7E02CC1DB012C916C013F
S1130E10222309F40CC1FDECCF0ED11CD6010C9198
S1130E20FB0114E0D3E0C2E041E050E07BC030E0DD
S1130E3020523109D901AA0FBB1FAA0FBB1FAA0F49
S1130E40BB1FA21BB30BA80FB91FA053BF4F2C91FC
S1130E50D70115962C93208130E020523109D90115
S1130E60AA0FBB1FAA0FBB1FAA0FBB1FA21BB30B4A
S1130E70A80FB91FAF52BF4F2C91DC01A40FB11DB5
S1130E8015962C93208130E020523109D901AA0F04
S1130E90BB1FAA0FBB1FAA0FBB1FA21BB30BA80F1C
S1130EA0B91FAE52BF4F2C91DC01AC0FB11D15968A
S1130EB02C93208130E020523109D901AA0FBB1FA5
S1130EC0AA0FBB1FAA0FBB1FA21BB30BA80FB91FEE
S1130ED0AD52BF4F2C91DC01AD0FB11D15962C9373
S1130EE0208130E020523109F901EE0FFF1FEE0F8F
S1130EF0FF1FEE0FFF1FE21BF30BE80FF91FEC526D
S1130F00FF4F2081FC01E10FF11D25835F5FFB0191
S1130F10E50FF11D20814B5FCB5FDB5F1B5F22235D
S1130F2009F48AC03FEF340F7C01E30EF11C002367
S1130F3009F47DCFB9E6EB0EF11C30E02052310903
S1130F40D901AA0FBB1FAA0FBB1FAA0FBB1FA21B4D
S1130F50B30BA80FB91FA053BF4F2C91D7012C93EB
S1130F607C01E40EF11CB9E6EB0EF11CA081B0E0AB
S1130F7090979D01220F331F220F331F220F331F1F
S1130F802A1B3B0B280F391FD901AF52BF4F2C919D
S1130F90D7012C937C01EC0EF11CB9E6EB0EF11C8D
S1130FA0A081B0E090979D01220F331F220F331FC1
S1130FB0220F331F2A1B3B0B280F391FD901AE52B6
S1130FC0BF4F2C91D7012C937C01ED0EF11CB9E697
S1130FD0EB0EF11CA081B0E090979D01220F331F0E
S1130FE0220F331F220F331F2A1B3B0B280F391FDD
S1130FF0D901AD52BF4F2C91D7012C93DC01A10F25
S1131000B11DA759BF4F208130E020523109F901A9
S1131010EE0FFF1FEE0FFF1FEE0FFF1FE21BF30B80
S1131020E80FF91FEC52FF4F20812C936FCFBDECDA
S1131030CB0ED11CF601008121E00227F6010083CA
S1131040DC0114961C92CDB7DEB7E8E026C02F92DF
S11310503F924F925F926F927F928F929F92AF9244
S1131060BF92CF92DF92EF92FF920F931F93CF9391
S1131070DF93CDB7DEB7CA1BDB0B0FB6F894DEBF28
S11310800FBECDBF09942A88398848885F846E844E
S11310907D848C849B84AA84B984C884DF80EE8098
S11310A0FD800C811B81AA81B981CE0FD11D0FB6A1
S11310B0F894DEBF0FBECDBFED010895EE0FFF1F04
S11310C00024001C0BBE0790F691E02D0994F894BF
S10510D0FFCF4C
S11310D200000000010000030800000000000108F5
S11310E25F00000000030803000300000508143E2B
S11310F2143E140408246A2B1200050863130864BE
S11311026305083649562050010803000000000315
S1131112081C22410000030841221C000005082883
S1131122180E1828050808083E08080208B07000BE
S113113200000408080808080002086060000000B3
S11311420408601806010004083E41413E000308F9
S1131152427F4000000408625149460004082241CB
S113116249360004081814127F000408274545393B
S11311720004083E494930000408611109070004CB
S113118208364949360004080649493E0002082245
S113119200000000020880500000000308102844E8
S11311A2000003081414140000030844281000006B
S11311B20408025909060005083E49555D0E040853
S11311C27E11117E0004087F4949360004083E411D
S11311D241220004087F41413E0004087F494941FD
S11311E20004087F0909010004083E41497A000409
S11311F2087F08087F000308417F4100000408308B
S113120240413F0004087F0814630004087F404003
S1131212400005087F020C027F05087F0408107F46
S113122204083E41413E0004087F090906000408FF
S11312323E4141BE0004087F09097600040846497C
S1131242493200050801017F010104083F40403F83
S11312520005080F3040300F05083F4038403F0575
S11312620863140814630508070870080704086172
S11312725149470002087F41000000040801061892
S113128260000208417F000000030802010200001E
S11312920408404040400002080102000000040823
S11312A2205454780004087F444438000408384425
S11312B244280004083844447F000408385454186D
S11312C2000308047E050000040898A4A47800041E
S11312D2087F040478000308447D400000040840A9
S11312E280847D0004087F102844000308417F4065
S11312F2000005087C047C047804087C040478005B
S1131302040838444438000408FC2424180004085F
S1131312182424FC0004087C08040400040848542B
S11313225424000308043F44000004083C40407C69
S11313320005081C2040201C05083C403C403C059C
S113134208442810284404089CA0A07C00030864D4
S1131352544C00000308083641000001087F0000D5
S113136200000308413608000004080804080400C9
S11313724D79737469632057697265732020202044
S1131382202020202000452D4E45524620426F77D2
S11313922020202020202020202020004D4F4120EA
S11313A245617379205461736B73202020202020BF
S11313B220004F6D65676120526567756C61746FBB
S11313C272732020202020005375636B7320322017
S11313D2622057616C6C2D452020202020004D6135
S11313E27474204C697463686669656C6420202097
S11313F2202020004E617468616E204C65612020BB
S11314022020202020202020200044722E205261FF
S11314126A616D616E692020202020202020200036
S1131422596F7520616C6C205375636B20202020EA
S113143220202020200049206861746520636F64A5
S113144265202020202020202020200057656C6366
S11314526F6D6520202020202020202020202020A5
S113146220006F6820796561682C20646F2069749C
S1131472202020202020200057656C636F6D6500BA
S113148257656C636F6D6521202020202020202069
S1091492202020202000B0
S9030000FC
