S01B000053656E696F7244657369676E50726F6A6563742E7372656368
S113000046C000006BC0000069C000001AC30000B5
S113001065C0000063C0000061C000005FC0000054
S11300205DC000005BC0000059C0000057C0000064
S113003055C0000053C0000051C000005CC2000065
S1130040CAC100004BC0000049C0000047C0000006
S11300505EC3000043C0000041C000003FC0000078
S11300603DC000003BC0000039C0000037C00000A4
S113007035C0000033C0000031C000002FC00000B4
S11300802DC000002BC0000029C00000C0031124B3
S11300901FBECFEFD0E4DEBFCDBF14E0A0E0B1E0DF
S11300A0E0E8FEE000E00BBF02C007900D92A6332B
S11300B0B107D9F727E0A6E3B4E001C01D92A73742
S11300C0B207E1F710E0C7E4D0E003C02197FE01D6
S11300D0CCD6C634D107D1F711D0D0C691CFCF93A7
S11300E0DF93EC0161D383E0898381E08A831B82FF
S11300F08FE08C831D82DF91CF9108952FEF89E6E5
S113010098E1215080409040E1F700C00000209A1F
S1130110289AEFEFF9E628E1E150F0402040E1F7BA
S113012000C0000028988FEF99E6E8E181509040E4
S1130130E040E1F700C00000289AC5ECD3E06991E3
S113014086E797E0F7D3F3E0CD3CDF07C1F702EC95
S113015013E085ECE82E83E0F82EE801699186E748
S113016097E0E8D323E0C53CD207C1F760E08FE312
S113017094E004D486E797E0C8D3CDECD3E069914A
S113018086E797E0D7D383E0C83ED807C1F7C2EC2F
S1130190D3E0699186E797E0CDD3EC16FD06C9F765
S11301A0C8EED3E0699186E797E0C4D394E0C03009
S11301B0D907C1F7C2ECD3E0699186E797E0BAD3D7
S11301C0EC16FD06C9F7579A1092B60016BC8EE8D5
S11301D087BD82E084BD91E095BD95B395BB8093C6
S11301E06E0085E797E080D3209880916900806352
S11301F080936900EA9A60EA73E08FE394E0D7D4CD
S1130200C0E0D4E0699186E797E094D3E4E0CF308E
S1130210DE07C1F7F80161918F0186E797E08AD381
S1130220E016F106B9F7FFEF29E688E1F150204026
S11302308040E1F700C00000809105019091060123
S113024018161906CCF3F89484E190E09093060113
S11302508093050181E08093040178949FEFE9E69F
S1130260F8E19150E040F040E1F700C000008091D7
S113027005019091060118161906CCF3F89484E14F
S113028090E0909306018093050181E0809304013E
S113029078942FEF89E698E1215080409040E1F76F
S11302A000C00000809105019091060118161906FE
S11302B0CCF3F89484E190E09093060180930501D7
S11302C081E0809304017894EFEFF9E628E1E150AE
S11302D0F0402040E1F700C00000809105019091BA
S11302E0060118161906CCF3F89484E190E0909373
S11302F006018093050181E08093040178948FEFD7
S113030099E6E8E181509040E040E1F700C0000048
S1130310809105019091060118161906CCF3F89402
S113032084E190E0909306018093050181E080933D
S113033004017894FFEF29E688E1F15020408040E1
S1130340E1F700C0000080910501909106011816A4
S11303501906CCF3F89484E190E09093060180931D
S1130360050181E0809304017894C4E1D0E011E0B8
S1130370809136048823E1F380913C0488508830CE
S1130380A0F0809105019091060118161906CCF38E
S1130390F894D0930601C093050110920401789457
S11303A060E084E797E013D213C080910501909137
S11303B0060118161906CCF3F894D0930601C093DD
S11303C0050110930401789461E084E797E0FFD17C
S11303D010923604CDCF1F920F920FB60F921124B4
S11303E02F933F934F938F939F9380910501909107
S11303F00601181619068CF5809104018823B9F1B9
S113040080910001909101018431910508F459C053
S11304109C012C5231402C33310508F452C02C522B
S113042031402C33310508F44CC02C5231402B326E
S1130430314008F446C05F98803D974008F444C0BA
S11304401092010110920001809105019091060122
S1130450019790930601809305019F918F914F918D
S11304603F912F910F900FBE0F901F901895809180
S11304700201909103018431910580F19C012C5279
S113048031402832310550F12C52314028323105A7
S113049028F12C5231402B32314000F15F98803DDD
S11304A027E09207F0F0109203011092020180916C
S11304B0050190910601019790930601809305012F
S11304C0CCCF80FD16C05F9880910001909101010E
S11304D001969093010180930001BFCF80FD07C076
S11304E05F9801969093030180930201B6CF5F9ABF
S11304F0F8CF5F9AE9CF1F920F920FB60F92112493
S11305000BB60F922F933F934F935F936F937F9309
S11305108F939F93AF93BF93EF93FF938FE394E0F5
S1130520E1D28FE394E0C2D26BEF88E394E0C6D1CA
S113053060E088E394E0B5D180913C0498EF980F93
S1130540983008F06FC0877061E070E001C0660FFA
S11305508A95EAF788E394E0A4D160E088E394E024
S1130560A0D180913C0490EF980F983008F055C0CA
S1130570877061E070E001C0660F8A95EAF788E34E
S113058094E08FD160E088E394E08BD180913C04C7
S1130590883008F44CC060E088E394E082D160E0E5
S11305A088E394E07ED16FEF88E394E087D14091B3
S11305B03B0480913C04442361F18F5F80933C04AD
S11305C0882311F12091390490E030E0220F331F89
S11305D0220F331F220F331F215031098217930733
S11305E099F0FF91EF91BF91AF919F918F917F917E
S11305F06F915F914F913F912F910F900BBE0F9090
S11306000FBE0F901F90189581E0842780933B04C0
S1130610E8CF815080933C04D3CF60E088E394E03A
S113062040D1B0CF60E088E394E03BD196CF61E065
S113063070E001C0660F8A95EAF788E394E031D14F
S1130640AECF1F920F920FB60F9211240BB60F92DA
S1130650EF92FF920F931F932F933F934F935F93C8
S11306606F937F938F939F93AF93BF93CF93DF93B6
S1130670EF93FF93199B32C081E080933604CFE05F
S1130680D4E0699186E797E055D184E0C032D80779
S1130690C1F702EC13E085ECE82E83E0F82EE801C4
S11306A0699186E797E046D1E3E0C53CDE07C1F7F0
S11306B0C0E2D4E0699186E797E03CD1F4E0C53329
S11306C0DF07C1F7F80161918F0186E797E032D126
S11306D0E016F106B9F785E180933704FF91EF91B5
S11306E0DF91CF91BF91AF919F918F917F916F9146
S11306F05F914F913F912F911F910F91FF90EF9038
S11307000F900BBE0F900FBE0F901F9018951F9265
S11307100F920FB60F9211240BB60F922F933F93A3
S11307204F935F936F937F938F939F93AF93BF93F5
S1130730CF93DF93EF93FF936091C60086E797E032
S1130740F9D0C2ECD3E0699186E797E0F3D083E077
S1130750C53CD807C1F7FF91EF91DF91CF91BF91CD
S1130760AF919F918F917F916F915F914F913F9145
S11307702F910F900BBE0F900FBE0F901F901895E6
S113078086E797E0C1D085E797E09ED084E797E0BD
S11307900BD08FE394E0D5D08EE394E003D088E3CC
S11307A094E09DCC01C00895ECECF0E0118210823D
S11307B0549A80EC8093CA0088E18093C90083E056
S11307C090E09183808387B18D6F87B90895662304
S11307D0A1F18091C80085FFFCCF8FED88B92FEF80
S11307E083EC99E0215080409040E1F700C0000084
S11307F08091C80085FFFCCF8FEF88B92FEF83EC81
S113080099E0215080409040E1F700C000008091C1
S1130810C80085FFFCCF8FE788B92FEF8BE49DE1FB
S1130820215080409040E1F700C000008091C80052
S113083085FFFCCF8FEF88B908958091C80085FFAC
S1130840FCCF8FED88B92FEF83EC99E021508040E5
S11308509040E1F700C000008091C80085FFFCCF04
S11308608FEF88B92FEF83EC99E0215080409040BE
S1130870E1F700C000008091C80085FFFCCF8FEB3A
S113088088B92FEF8BE49DE1215080409040E1F73F
S113089000C000008091C80085FFFCCF8FEF88B9AD
S11308A008958091C80085FFFCCF6093CE008091AD
S11308B0C80087FFFCCF8091CE0008958091C800C6
S11308C085FFFCCF68B90895E1E8F0E0808182609B
S11308D080831092850010928400EFE6F0E080811E
S11308E08160808378940895E1E8F0E080818260FB
S11308F080831092850010928400EFE6F0E08081FE
S113090081608083789408950895509A8AB18C7F89
S11309108AB91092C50083E38093C400E1ECF0E04F
S113092080818860808380818061808386E0809379
S1130930C20008958091C00085FFFCCF6093C6007B
S11309400895CF93DF93EC012FDF84E089838FE058
S113095090E09B838A831C82FE01E556FF4F108240
S1130960DE01A456BF4F89E992E0E7E0F1E001908F
S11309700D920197E1F7DF91CF9108950F931F93A3
S1130980CF93DF93EC016FEF99DF6FEFCE0196DF2A
S11309906EEFCE0193DF8981882359F011E06BE07B
S11309A0CE017FDF67E0CE017CDF1F5F8981811785
S11309B0B0F76FEFCE0182DF6FEFCE017FDF6EEF16
S11309C0CE017CDF8981882359F011E069E0CE01F2
S11309D068DF60E0CE0165DF1F5F89818117B0F7B2
S11309E06FEFCE016BDF6FEFCE0168DF6EEFCE01EC
S11309F065DF8981882359F011E06CE0CE0151DF75
S1130A0061E0CE014EDF1F5F89818117B0F76FEF80
S1130A10CE0154DF6FEFCE0151DF6EEFCE014EDF1A
S1130A208981882359F011E06FE0CE013ADF60E05C
S1130A30CE0137DF1F5F89818117B0F76FEFCE01D9
S1130A403DDF6FEFCE013ADF6EEFCE0137DF8981F4
S1130A50882359F011E06AE0CE0123DF6FE0CE0174
S1130A6020DF1F5F89818117B0F76FEFCE0126DF8A
S1130A7001E06EEFCE0122DF8981882359F011E075
S1130A80602FCE010EDF60E0CE010BDF1F5F898196
S1130A908117B0F76FEFCE0111DF0F5F093049F70F
S1130AA01C82DF91CF911F910F910895FC018481E5
S1130AB09181482F50E022813381B901660F771F5D
S1130AC0660F771F260F371F68E0969F200D311D94
S1130AD011244217530718F48F5F8483089580E02C
S1130AE084830895A0E0B0E0E7E7F5E091C1EC016C
S1130AF001E010E07C018BE9E80EF11CD02E6EEFD2
S1130B00CE01DCDE8981882309F43DC0C12C1CC0E0
S1130B10241B350B8A819B81AC01440F551F440F64
S1130B20551F840F951F8217930730F1F7018081B9
S1130B308823B1F1FE01E20FF31F6581CE01B1DE1E
S1130B40C3948981C816F8F46D2DCE01AADE8C8178
S1130B509801280F311DE8E0CE9E200D311D11248F
S1130B60898190E0AC01440F551F440F551F440F79
S1130B70551F2417350760F660E0CE0192DEC3945A
S1130B808981C81608F36FEFCE0198DE0F5F1F4FFF
S1130B900930110509F0B2CFCDB7DEB7E8E054C192
S1130BA02C0F3D1FF901E05BFF4F6081C7CFA0E030
S1130BB0B0E0ECEDF5E02CC1DB012C916C012223BB
S1130BC009F40CC1FBE9CF0ED11CD6010C91FB0139
S1130BD014E0D3E0C2E041E050E07BC030E02052BA
S1130BE03109D901AA0FBB1FAA0FBB1FAA0FBB1F34
S1130BF0A21BB30BA80FB91FA256BF4F2C91D7014C
S1130C0015962C93208130E020523109D901AA0F86
S1130C10BB1FAA0FBB1FAA0FBB1FA21BB30BA80F9E
S1130C20B91FA156BF4F2C91DC01A40FB11D15961D
S1130C302C93208130E020523109D901AA0FBB1F27
S1130C40AA0FBB1FAA0FBB1FA21BB30BA80FB91F70
S1130C50A056BF4F2C91DC01AC0FB11D15962C93FF
S1130C60208130E020523109D901AA0FBB1FAA0FFD
S1130C70BB1FAA0FBB1FA21BB30BA80FB91FAF55F5
S1130C80BF4F2C91DC01AD0FB11D15962C93208123
S1130C9030E020523109F901EE0FFF1FEE0FFF1F64
S1130CA0EE0FFF1FE21BF30BE80FF91FEE55FF4F8A
S1130CB02081FC01E10FF11D25835F5FFB01E50F3E
S1130CC0F11D20814B5FCB5FDB5F1B5F222309F4A7
S1130CD08AC03FEF340F7C01E30EF11C002309F4BA
S1130CE07DCFB0E5EB0EF11C30E020523109D90183
S1130CF0AA0FBB1FAA0FBB1FAA0FBB1FA21BB30BBC
S1130D00A80FB91FA256BF4F2C91D7012C937C0179
S1130D10E40EF11CB0E5EB0EF11CA081B0E090975D
S1130D209D01220F331F220F331F220F331F2A1B53
S1130D303B0B280F391FD901A156BF4F2C91D70166
S1130D402C937C01EC0EF11CB0E5EB0EF11CA081A0
S1130D50B0E090979D01220F331F220F331F220F03
S1130D60331F2A1B3B0B280F391FD901A056BF4F35
S1130D702C91D7012C937C01ED0EF11CB0E5EB0E08
S1130D80F11CA081B0E090979D01220F331F220F28
S1130D90331F220F331F2A1B3B0B280F391FD90186
S1130DA0AF55BF4F2C91D7012C93DC01A10FB11D7E
S1130DB0A05BBF4F208130E020523109F901EE0FD2
S1130DC0FF1FEE0FFF1FEE0FFF1FE21BF30BE80FD9
S1130DD0F91FEE55FF4F20812C936FCFBBE9CB0E4B
S1130DE0D11CF601008121E00227F6010083DC0119
S1130DF014961C92CDB7DEB7E8E026C02F923F923E
S1130E004F925F926F927F928F929F92AF92BF9216
S1130E10CF92DF92EF92FF920F931F93CF93DF93C2
S1130E20CDB7DEB7CA1BDB0B0FB6F894DEBF0FBE1F
S1130E30CDBF09942A88398848885F846E847D846C
S1130E408C849B84AA84B984C884DF80EE80FD806E
S1130E500C811B81AA81B981CE0FD11D0FB6F894E4
S1130E60DEBF0FBECDBFED010895EE0FFF1F0024BE
S1130E70001C0BBE0790F691E02D0994F894FFCF67
S1130E800000000001000003080000000000010849
S1130E905F00000000030803000300000508143E7F
S1130EA0143E140408246A2B120005086313086412
S1130EB0630508364956205001080300000000036A
S1130EC0081C22410000030841221C0000050828D8
S1130ED0180E1828050808083E08080208B0700013
S1130EE00000040808080808000208606000000008
S1130EF00408601806010004083E41413E0003084E
S1130F00427F40000004086251494600040822411F
S1130F1049360004081814127F000408274545398F
S1130F200004083E4949300004086111090700041F
S1130F3008364949360004080649493E0002082299
S1130F40000000000208805000000003081028443C
S1130F5000000308141414000003084428100000BF
S1130F600408025909060005083E49555D0E0408A7
S1130F707E11117E0004087F4949360004083E4171
S1130F8041220004087F41413E0004087F49494151
S1130F900004087F0909010004083E41497A00045D
S1130FA0087F08087F000308417F410000040830DF
S1130FB040413F0004087F0814630004087F404058
S1130FC0400005087F020C027F05087F0408107F9B
S1130FD004083E41413E0004087F09090600040854
S1130FE03E4141BE0004087F0909760004084649D1
S1130FF0493200050801017F010104083F40403FD8
S11310000005080F3040300F05083F4038403F05C9
S113101008631408146305080708700807040861C6
S11310205149470002087F410000000408010618E6
S113103060000208417F0000000308020102000072
S11310400408404040400002080102000000040877
S1131050205454780004087F444438000408384479
S113106044280004083844447F00040838545418C1
S1131070000308047E050000040898A4A478000472
S1131080087F040478000308447D400000040840FD
S113109080847D0004087F102844000308417F40B9
S11310A0000005087C047C047804087C04047800AF
S11310B0040838444438000408FC242418000408B4
S11310C0182424FC0004087C080404000408485480
S11310D05424000308043F44000004083C40407CBE
S11310E00005081C2040201C05083C403C403C05F1
S11310F008442810284404089CA0A07C0003086429
S1131100544C00000308083641000001087F000029
S1131110000003084136080000040808040804001D
S11311204D797374696320576972657300546561FE
S11311306D203600466C616D657320506C61796575
S113114064000D0A0057656C636F6D650041626F42
S1131150757420746F20494E495420776561706F0F
S11311606E4D617472697800776561706F6E4D6160
S1131170747269782077617320496E6974656400BC
S11311804E657720537472696E6720536574004905
S11311905232204C61746368656420486967680052
S11311A049742077617320416363656C65726F6D68
S10911B065746572000085
S9030000FC
