S01B000053656E696F7244657369676E50726F6A6563742E7372656368
S113000046C000006BC0000069C0000067C000006B
S113001065C0000063C0000061C000005FC0000054
S11300205DC000005BC0000059C0000057C0000064
S113003055C0000053C0000051C000004FC0000074
S113004067C000004BC0000049C0000047C000006A
S113005045C0000043C0000041C000003FC0000094
S11300603DC000003BC0000039C0000037C00000A4
S113007035C0000033C0000031C000002FC00000B4
S11300802DC000002BC0000029C00000CC001124AA
S11300901FBECFEFD0E4DEBFCDBF13E0A0E0B1E0E0
S11300A0E2E6F4E000E00BBF02C007900D92A23A32
S11300B0B107D9F726E0A2EAB3E001C01D92A23C41
S11300C0B207E1F710E0C7E4D0E003C02197FE01D6
S11300D0BDD1C634D107D1F702D0C1C191CF60E000
S11300E082EA93E09AD10F2EF9E9EF2EF3E0FF2E86
S11300F0F02D0CE913E068E085EA96E068D0E701AA
S1130100699185EA96E063D0C017D107C9F7F3CFA8
S11301101F920F920FB60F9211240BB60F920F93EA
S11301201F932F933F934F935F936F937F938F937B
S11301309F93AF93BF93CF93DF93EF93FF93CCE958
S1130140D3E00FE913E0699181EC96E0EBD0C0179E
S1130150D107C9F7CFE9D3E002EA13E0699181EC52
S113016096E0E0D0C017D107C9F7FF91EF91DF9176
S1130170CF91BF91AF919F918F917F916F915F913B
S11301804F913F912F911F910F910F900BBE0F90A4
S11301900FBE0F901F90189581EC96E0C1D086EAAF
S11301A096E077D085EA96E05ED082EA93E0C2C01A
S11301B00895ECECF0E011821082549A80EC809364
S11301C0CA0088E18093C900118210820895E8EC86
S11301D0F0E0808185FFFDCF6093CE00E8ECF0E095
S11301E080818823ECF78091CE00089587B18D6FCC
S11301F087B980E488B92FE986E891E021508040EE
S11302009040E1F700C0000080E288B92FE986E859
S113021091E0215080409040E1F700C0000080E16F
S113022088B92FE986E891E0215080409040E1F7B9
S113023000C0000088E088B92FE986E891E02150E9
S113024080409040E1F700C0000084E088B92FE9C5
S113025086E891E0215080409040E1F700C0000022
S113026081E088B90895CF93DF93EC01A2DFCE013A
S1130270BDDFDF91CF9108951092B60016BC8EE8D1
S113028087BD82E084BD95B395BB80936E0078945E
S11302900895FC0181E0808312821182148213820A
S11302A0168215821086178284E190E092878187F6
S11302B08CE291E09487838788E691E0968785872E
S11302C088E592E0908B878780E892E0928B818B1F
S11302D084E992E0948B838B84E893E0968B858BFE
S11302E08FEA94E0908F878B8FEC97E0928F818FC9
S11302F0CF01C2CF0895509A8AB18C7F8AB91092E7
S1130300C50087E08093C400E1ECF0E08081886060
S1130310808380818061808386E08093C200089519
S1130320EACF0895E0ECF0E0808185FFFDCF609393
S1130330C6000895CF93DF93EC0195DF83E08983B2
S11303408AE090E09B838A831C82FE01E759FF4F79
S11303501082DE01A659BF4F89E992E0E0E0F1E0A6
S113036001900D920197E1F7DF91CF910895CF931A
S1130370DF93EC01FB0160812ADFCE01DF91CF9195
S11303800895CF93DF93EC01FB01608120DFCE0160
S1130390DF91CF910895CF92DF92FF920F931F9335
S11303A0CF93DF9300D000D01F92CDB7DEB76C019E
S11303B06C834D8388E08B8381E08A830C2DFD2C34
S11303C0BE016E5F7F4FC601D2DFBE016D5F7F4FFE
S11303D0CEDFF6011181112361F0BE016C5F7F4F06
S11303E0802F9F2DCEDFBE016B5F7F4FCADF115080
S11303F0A1F781E08983BE016F5F7F4FC601B7DF3C
S11304000F900F900F900F900F90DF91CF911F914D
S11304100F91FF90DF90CF900895CF93DF93EC017D
S113042047E06BE0B8DF40E069E0CE01B4DF41E0D3
S11304306CE0CE01B0DF40E06FE0CE01ACDF4FE016
S11304406AE0CE01A8DFDF91CF910895EE0FFF1F80
S11304500024001C0BBE0790F691E02D0994F8943B
S1050460FFCFC8
S11304620308000000000001085F00000000030808
S113047203000300000508143E143E140408246A11
S11304822B120005086313086463050836495620D5
S1130492500108030000000003081C22410000036D
S11304A20841221C0000050828180E18280508080F
S11304B2083E08080208B070000000040808080892
S11304C208000208606000000004086018060100C9
S11304D204083E41413E000308427F4000000408F4
S11304E2625149460004082241493600040818149E
S11304F2127F000408274545390004083E49493063
S11305020004086111090700040836494936000449
S1130512080649493E000208500000000002088013
S113052250000000030810284400000308141414A7
S113053200000308442810000004080259090600B8
S113054205083E49555D0E04087E11117E0004081B
S11305527F4949360004083E4141220004087F4194
S1130562413E0004087F4949410004087F0909010A
S11305720004083E41497A0004087F08087F00030A
S113058208417F41000004083040413F0004087FD5
S11305920814630004087F4040400005087F020CF1
S11305A2027F05087F0408107F04083E41413E0093
S11305B204087F0909060004083E4141BE000408FC
S11305C27F090976000408464949320005080101F9
S11305D27F010104083F40403F0005080F304030CE
S11305E20F05083F4038403F0508631408146305AB
S11305F20807087008070408615149470002087F88
S113060241000000040801061860000208417F004E
S113061200000308020102000004084040404000B8
S1130622020801020000000408205454780004085F
S11306327F444438000408384444280004083844F9
S1130642447F00040838545418000308047E05004B
S113065200040898A4A4780004087F040478000322
S113066208447D40000004084080847D0004087F23
S1130672102844000308417F40000005087C047CE4
S1130682047804087C0404780004083844443800DC
S11306920408FC242418000408182424FC00040878
S11306A27C08040400040848545424000308043F4A
S11306B244000004083C40407C0005081C20402003
S11306C21C05083C403C403C0508442810284404CE
S11306D2089CA0A07C00030864544C000003080892
S11306E23641000001087F0000000003084136087B
S11306F20000040808040804004849006869000D61
S10507020A00E7
S9030000FC
